:020000040800F2
:10000000B8060020CD01000845120008C7110008FD
:1000100041120008D30200089D13000800000000F0
:100020000000000000000000000000007512000841
:10003000D7020008000000004912000877120008EB
:10004000E7010008E7010008E7010008E7010008F0
:10005000E7010008E7010008E7010008E7010008E0
:10006000E7010008E7010008E7010008E7010008D0
:10007000E7010008E7010008E7010008E7010008C0
:10008000E7010008E7010008E7010008E7010008B0
:10009000E7010008E7010008E7010008E7010008A0
:1000A000E7010008E1120008E7010008E701000885
:1000B000E7010008E7010008E7010008E701000880
:1000C000E7010008E7010008E7010008E701000870
:1000D000E7010008E7010008E7010008E701000860
:1000E000E7010008E7010008E7010008E701000850
:1000F000E7010008E7010008E7010008E701000840
:10010000E7010008E7010008E7010008E70100082F
:10011000E7010008E7010008E7010008E70100081F
:10012000E7010008E7010008E7010008E70100080F
:1001300000F002F800F03AF80AA090E8000C8244BF
:100140008344AAF10107DA4501D100F02FF8AFF29C
:10015000090EBAE80F0013F0010F18BFFB1A43F0A5
:1001600001031847D4120000F4120000103A24BF13
:1001700078C878C1FAD8520724BF30C830C144BF0C
:1001800004680C607047000000230024002500264E
:10019000103A28BF78C1FBD8520728BF30C148BFEA
:1001A0000B6070471FB51FBD10B510BD00F058F8AB
:1001B0001146FFF7F7FF01F00FF900F076F803B4EE
:1001C000FFF7F2FF03BC00F07DF80000094880470C
:1001D00009480047FEE7FEE7FEE7FEE7FEE7FEE729
:1001E000FEE7FEE7FEE7FEE704480549054A064B41
:1001F00070470000DF12000831010008B80000203D
:10020000B8060020B8020020B80200204FF000021B
:1002100000B5134694469646203922BFA0E80C50FC
:10022000A0E80C50B1F12001BFF4F7AF090728BFD7
:10023000A0E80C5048BF0CC05DF804EB890028BF53
:1002400040F8042B08BF704748BF20F8022B11F07C
:10025000804F18BF00F8012B7047704770477047F8
:10026000754600F02BF8AE4605006946534620F06F
:100270000700854618B020B5FFF7B6FFBDE820405F
:100280004FF000064FF000074FF000084FF0000B52
:1002900021F00701AC46ACE8C009ACE8C009ACE805
:1002A000C009ACE8C0098D46704710B50446AFF3ED
:1002B00000802046BDE81040FFF781BF004870472E
:1002C0005800002001491820ABBEFEE726000200BE
:1002D000704700BFFEE7704772B600BFFEE7000040
:1002E00070B5044600F0C0F906462546681C10B1FA
:1002F00004480078054400BF00F0B6F9801BA8420E
:10030000FAD370BD080000202DE9F847024600230B
:100310009C467BE14FF0010808FA03F4D1F8008015
:1003200008EA0400A0427DD1DFF8F4A2D1F80480ED
:10033000A8EB0A09D0453AD014DCB8F1030F50D02D
:1003400009DCB8F1000F31D0B8F1010F1CD0B8F1C1
:10035000020F49D120E0B8F1110F18D0B8F1120FF7
:1003600042D11EE0B9F5881F25D006DCB9F5803FE3
:1003700020D0B9F5801F37D11AE0B9F5001F18D089
:10038000B9F5041F30D117E0D1F80CC02DE0D1F839
:100390000C8008F1040C28E0D1F80C8008F1080C5E
:1003A00023E0D1F80C8008F10C0C1EE000BF00BF68
:1003B00000BF00BF00BF00BFD1F80880B8F1000F38
:1003C00002D14FF0040C0BE0D1F80880B8F1010F16
:1003D00003D14FF0080C146102E04FF0080C546197
:1003E00003E04FF0000C00E000BF00BFFF2801D881
:1003F000904601E002F104084646FF2802D84FEA81
:10040000830803E0A3F108084FEA88084746D6F8B6
:1004100000804FF00F0909FA07F928EA09080CFAD9
:1004200007F900E07AE048EA0908C6F80080D1F848
:10043000048008F08058B8F1805F6FD100BFDFF80A
:10044000E481D8F8188048F00108DFF8D891C9F89D
:100450001880C846D8F8188008F00108CDF8008048
:1004600000BF00BF4FEAB9384FEA930958F8295046
:100470004FEA83784FEA18794FF00F0808FA09F825
:1004800025EA0805DFF8A081424502D14FF00008B7
:1004900024E0DFF89881424502D14FF001081DE0C9
:1004A000DFF88C81424502D14FF0020816E0DFF8F8
:1004B0008481424502D14FF003080FE0DFF87881D4
:1004C000424502D14FF0040808E0DFF87081424550
:1004D00002D14FF0050801E04FF006084FEA83799A
:1004E0004FEA197908FA09F848EA0505DFF850815A
:1004F0004FEA930948F82950D1F8048008F480188D
:10050000B8F5801F0BD1DFF83C81D8F8008048EAAD
:100510000008DFF83091C9F800800AE075E0DFF8E4
:100520002481D8F8008028EA0008DFF81891C9F87B
:100530000080D1F8048008F40018B8F5001F0ED12F
:10054000DFF8008108F10408D8F8008048EA0008C4
:10055000DFF8F09009F10409C9F800800DE0DFF838
:10056000E48008F10408D8F8008028EA0008DFF8E1
:10057000D49009F10409C9F80080D1F8048008F486
:100580000038B8F5003F0ED1DFF8B880A8F10408B4
:10059000D8F8008048EA0008DFF8A890A9F104091B
:1005A000C9F800800DE0DFF89C80A8F10408D8F8B5
:1005B000008028EA0008DFF88C90A9F10409C9F846
:1005C0000080D1F8048008F48038B8F5803F0ED15F
:1005D000DFF87080A8F10808D8F8008048EA000821
:1005E000DFF86090A9F10809C9F800800DE0DFF894
:1005F0005480A8F10808D8F8008028EA0008DFF83D
:100600004490A9F10809C9F800805B1CD1F800806A
:1006100028FA03F8B8F1000F7FF47CAEBDE8F88744
:10062000000011100010024000080140000C0140C1
:10063000001001400014014000180140001C01405E
:10064000080001400804014010B5C26821EA020315
:1006500002EA010443EA0443036110BD0AB10161E7
:1006600001E00B0403617047014800687047000017
:100670000000002003480068034909780844014944
:1006800008607047000000200800002010B50848EE
:10069000006840F0100006490860032000F0D2F81E
:1006A0000F2000F007F800F055F8002010BD000002
:1006B00000200240F0B587B0044600260027002540
:1006C00000BF1F48806940F400601D4988610846EA
:1006D000806900F40060009000BF00BF01A902A87B
:1006E00000F08AF900F0B0F906461648B6FBF0F0C3
:1006F000471E15481549086040F2E7311348C160AC
:100700004760002101618160816100F019FC0546AC
:1007100095B90E4800F048FC05466DB9192000F067
:1007200043F8102C07D200222146192000F04CF883
:100730000748046000E00125284607B0F0BD00002E
:100740000010024040420F00002C01401000002029
:100750000400002008B500BF1148806940F0010086
:100760000F4988610846806900F00100009000BFD1
:1007700000BF00BF0846C06940F08050C86108460D
:10078000C06900F08050009000BF00BF00BF054965
:10079000486820F0E06040F00070486000BF08BD8D
:1007A000001002400000014001460846002809DB15
:1007B00000F01F0301229A4043099B0003F1E0234C
:1007C000C3F8002100BF70472DE9F05F80460D4659
:1007D0001646002700F0E4FD074639462A46334610
:1007E00001F00700C0F1070ABAF1040F02D94FF077
:1007F000040A01E0C0F1070AD14600F1040ABAF187
:10080000070F02D24FF0000A01E0A0F1030AD4461C
:100810004FF0010A0AFA09FAAAF1010A0AEA020AE1
:100820000AFA0CFA4FF0010B0BFA0CFBABF1010BBF
:100830000BEA030B4AEA0B042146404600F0B8FDE0
:10084000BDE8F09F00BF00F00702064B19684FF6A5
:10085000FF031940044B0B4343EA0221014B19608B
:1008600000BF70470CED00E00000FA0570B50446CB
:100870000D460CB9012070BD5A48006800F0070011
:10088000A8420ED25748006820F007002843554977
:1008900008600846006800F00700A84201D0012067
:1008A000E9E7207800F0020002281DD1207800F04E
:1008B0000400042805D14C48406840F4E0604A49EF
:1008C0004860207800F00800082805D146484068B4
:1008D00040F46050444948604348406820F0F000CC
:1008E000A168084340494860207800F0010078B3CF
:1008F0006068012806D13C48006800F4003090B9D7
:100900000120B8E76068022806D13748006800F087
:10091000007040B90120AEE73348006800F00200E3
:1009200008B90120A7E73048406820F0030061685B
:1009300008432D494860FFF797FE064609E0FFF798
:1009400093FE801B41F28831884202D9032092E74E
:1009500007E02548406800F00C006168B0EB810FAB
:10096000EDD12048006800F00700A8420ED91D48CC
:10097000006820F0070028431A490860084600680C
:1009800000F00700A84201D0012074E7207800F0B1
:100990000400042807D11448406820F4E060E168AE
:1009A000084311494860207800F00800082808D161
:1009B0000D48406820F46050216940EAC1000A49AE
:1009C000486000F051F808494968C1F30311074A2B
:1009D000515CC8400649086006480068FFF76AFE97
:1009E000002048E700200240001002401E140008CA
:1009F0000C000020040000200F2202600D4A526803
:100A000002F0030242600B4A526802F0F002826078
:100A1000084A526802F4E062C260064A526802F470
:100A20006052D2080261044A126802F007020A60AA
:100A3000704700000010024000200240014800689A
:100A4000704700000C00002000B5FFF7F7FF0449D5
:100A50004968C1F3C221034A515CC84000BD00008F
:100A6000001002402E14000870B50021002200245E
:100A700000230020134D696801F00C05F5B1042D29
:100A800002D0082D19D101E00F4819E00F4DC1F334
:100A90008346AB5D01F4803555B10A4D6D68C5F3F1
:100AA00040450B4E725D084D5D43B5FBF2F402E02C
:100AB000084D03FB05F4204602E000BF024800BFDA
:100AC00000BF70BD0010024000127A000C14000834
:100AD0001C14000800093D00F8B504460CB90120BB
:100AE000F8BD207800F00100002878D0F848406870
:100AF00000F00C0004280CD0F548406800F00C0011
:100B0000082811D1F248406800F48030B0F5803FE9
:100B10000AD1EF48006800F4003000285FD0606818
:100B200000285CD10120DBE700BF6068B0F5803FA2
:100B300006D1E748006840F48030E549086028E0C5
:100B4000606858B9E248006820F48030E0490860E5
:100B50000846006820F4802008601AE06068B0F55C
:100B6000A02F0BD1DA48006840F48020D8490860F3
:100B70000846006840F4803008600AE0D448006805
:100B800020F48030D24908600846006820F48020B4
:100B9000086000BF606888B1FFF766FD054606E0A3
:100BA000FFF762FD401B642801D9032098E7C8487D
:100BB000006800F400300028F2D010E0FFF754FD88
:100BC000054606E0FFF750FD401B642801D90320CD
:100BD00086E7BF48006800F400300028F2D1207892
:100BE00000F00200022857D1B948406800F00C001C
:100BF00050B1B748406800F00C00082818D1B4483C
:100C0000406800F4803098B9B148006800F00200F4
:100C100020B12069012801D0012061E7AC480068BB
:100C200020F0F800616940EAC100A949086033E09A
:100C30002069E8B10120A7490860FFF715FD0546C6
:100C400006E0FFF711FD401B022801D9032047E70A
:100C50009F48006800F002000028F2D09C4800681D
:100C600020F0F800616940EAC1009949086013E08A
:100C7000002098490860FFF7F7FC054606E0FFF7FB
:100C8000F3FC401B022801D9032029E790480068A3
:100C900000F002000028F2D1207800F008000828B7
:100CA0002DD1A069B8B101208B490860FFF7DCFCA9
:100CB000054606E0FFF7D8FC401B022801D90320B7
:100CC0000EE78348406A00F002000028F2D00120BD
:100CD00000F0BCFA13E000207F490860FFF7C4FC75
:100CE000054606E0FFF7C0FC401B022801D903209F
:100CF000F6E67748406A00F002000028F2D120783A
:100D000000F00400042873D100277148C06900F086
:100D1000805070B900BF6E48C06940F080506C4987
:100D2000C8610846C06900F08050009000BF00BF55
:100D300001276A48006800F48070B0B9674800680D
:100D400040F4807065490860FFF78EFC054606E0B8
:100D5000FFF78AFC401B642801D90320C0E65F48E6
:100D6000006800F480700028F2D000BFE06801281D
:100D700006D15748006A40F001005549086227E053
:100D8000E06858B95248006A20F0010050490862F2
:100D90000846006A20F00400086219E0E0680528AF
:100DA0000BD14B48006A40F00400494908620846EC
:100DB000006A40F0010008620AE04548006A20F03D
:100DC0000100434908620846006A20F004000862F6
:100DD00000BFE068A0B1FFF747FC054609E0FFF758
:100DE00043FC401B41F28831884202D9032077E658
:100DF00022E03748006A00F002000028EFD012E03D
:100E0000FFF732FC054608E0FFF72EFC401B41F2DD
:100E10008831884201D9032062E62D48006A00F03B
:100E200002000028F0D1012F05D12948C06920F027
:100E300080502749C86100BFE069C8B324484068B2
:100E400000F00C00082860D0E069022848D100209A
:100E500020490866FFF708FC054606E0FFF704FC9A
:100E6000401B022801D903203AE61948006800F027
:100E700000700028F2D1206AB0F5803F07D11448F5
:100E8000406820F40030A168084311494860D4E963
:100E9000080108430E49496821F4741108430C49BC
:100EA000486001200B490866FFF7DEFB054607E0B6
:100EB0003DE0FFF7D9FB401B022801D903200FE6D4
:100EC0000348006800F000700028F2D02FE0000016
:100ED0000010024000004242800442420070004084
:100EE000002014490866FFF7BFFB054606E0FFF740
:100EF000BBFB401B022801D90320F1E50E48006826
:100F000000F000700028F2D111E0E069012800D162
:100F1000E6E50948466806F48031206A814204D13A
:100F200006F47011606A814201D00120D8E50020EA
:100F3000D6E50000000042420010024070477047B2
:100F400010B504460CB9012010BD94F83D0028B935
:100F5000002084F83C00204600F025F8022084F8A8
:100F60003D00211D206800F0C3F9012084F84600EF
:100F700000BF84F83E0001213F200155402001556B
:100F80004120015500BF00BF012084F842004320EA
:100F90000155442001554520015500BF012084F82A
:100FA0003D000020D0E77047014691F83D00012840
:100FB00001D001207047022081F83D000868C06818
:100FC00040F001000B68D860164B0868984213D0B7
:100FD000154B086898420FD00868B0F1804F0BD0CD
:100FE000124B0868984207D0114B0868984203D00A
:100FF000104B086898420CD10868806800F007021E
:10100000062A0CD00868006840F001000B681860E0
:1010100005E00868006840F001000B6818600020D7
:10102000C8E70000002C01400034014000040040EB
:1010300000080040000C0040704770B5044620686E
:10104000C5682068066906F00200022819D105F07B
:101050000200022815D1401F216808610120207775
:101060002068806900F0030018B12046FFF7E4FF14
:1010700005E0204600F097F8204600F095F80020A3
:10108000207706F00400042819D105F00400042894
:1010900015D1C0432168086102202077206880694B
:1010A00000F4407018B12046FFF7C6FF05E0204667
:1010B00000F079F8204600F077F80020207706F05D
:1010C0000800082819D105F00800082815D1C043E8
:1010D00021680861042020772068C06900F00300BF
:1010E00018B12046FFF7A8FF05E0204600F05BF8A6
:1010F000204600F059F80020207706F01000102854
:1011000019D105F01000102815D1C04321680861DD
:10111000082020772068C06900F4407018B120468C
:10112000FFF78AFF05E0204600F03DF8204600F07A
:101130003BF80020207706F0010048B105F00100DF
:1011400030B16FF0010021680861204600F02EF8F0
:1011500006F08000802809D105F08000802805D1A4
:10116000C043216808612046FFF7E8FE06F0400012
:10117000402809D105F04000402805D1C04321682E
:101180000861204600F01EF806F02000202809D152
:1011900005F02000202805D1C043216808612046C1
:1011A000FFF7CDFE70BD70477047000010B50446D4
:1011B00003492068884201D1FFF75CFA10BD0000A6
:1011C000002C0140704700BFFEE7000000B585B06D
:1011D0000020019002900390049000BF164880699F
:1011E00040F00400144988610846806900F004005A
:1011F000009000BF00BF00BF0846806940F00800B3
:1012000088610846806900F00800009000BF00BFB8
:10121000002220210948FFF721FA20200190012017
:101220000290002003900220049001A90348FFF7D8
:101230006BF805B000BD000000100240000C01403A
:1012400000BFFEE700BFFEE77047000008B5084991
:101250000968C9084FF47A72B1FBF2F14143009179
:1012600000BF00BF00994A1E00920029F9D108BDB5
:101270000C0000207047704700B58FB0282105A8EA
:10128000FEF7C4FF14216846FEF7C0FF0120059059
:1012900000040690002007900120099002200C9085
:1012A000C1030D914FF4E0110E9105A8FFF714FC56
:1012B00008B1FFF711F80F200090022001900020E4
:1012C00002904FF480600390002004900221684651
:1012D000FFF7CCFA08B1FEF7FFFF0FB000BD704773
:1012E00010B50248FFF7A9FE10BD00001000002055
:1012F00010B50268244B98420ED0244B98420BD074
:10130000B0F1804F08D0224B984205D0214B984233
:1013100002D0214B984203D122F070024B681A434D
:10132000194B98420ED0194B98420BD0B0F1804F18
:1013300008D0174B984205D0164B984202D0164B56
:10134000984203D122F44072CB681A4322F0800302
:101350004C6943EA040202608B68C3620B688362D3
:10136000094B984202D0094B984201D10B690363A3
:1013700001234361036903F001031BB1036923F0F7
:101380000103036110BD0000002C01400034014046
:101390000004004000080040000C004000BFFEE7D1
:1013A00002480068C0F30220704700000CED00E026
:1013B00010B5002804DB0A07130E054A135406E093
:1013C0000A07140E034A00F00F031B1FD45410BD6C
:1013D00000E400E018ED00E0FFF758F9FFF74CFFDC
:1013E000FFF7F4FE0FE020210748FFF72DF94FF437
:1013F000FA70FEF775FF20210348FFF725F94FF437
:10140000FA70FEF76DFFEEE7000C014002030405E1
:10141000060708090A0B0C0D0E0F10100102000040
:101420000000000000000102030406070809000094
:10143000000001020304000058140008000000200E
:10144000100000006C010008681400081000002063
:10145000A80600008801000800000000100000003D
:081460000100000000127A00F7
:0400000508000131BD
:00000001FF
